:020000040800F2
:10000000680A002091010008373E00087335000897
:10001000353E0008090800088D480008000000006F
:1000200000000000000000000000000099440008EB
:100030004308000800000000953F00089B440008AA
:10004000AB010008AB010008AB010008D940000873
:10005000AB010008AB010008AB010008450800082F
:10006000AB010008AB010008AB0100080D08000857
:10007000AB010008AB010008AB010008AB010008B0
:10008000AB010008AB010008AB010008AB010008A0
:10009000AB010008AB010008AB010008AB01000890
:1000A000AB010008AB010008AB010008AB01000880
:1000B000AB010008AB010008AB010008AB01000870
:1000C000AB010008AB010008AB010008AB01000860
:1000D000AB01000881480008AB010008AB01000833
:1000E000AB010008AB010008AB01000800F002F80A
:1000F00000F03FF80AA090E8000C82448344AAF183
:100100000107DA4501D100F034F8AFF2090EBAE880
:100110000F0013F0010F18BFFB1A43F0010318473B
:10012000A4630000C4630000103A24BF78C878C1FB
:10013000FAD8520724BF30C830C144BF04680C60ED
:10014000704700000023002400250026103A28BF35
:1001500078C1FBD8520728BF30C148BF0B60704739
:10016000732900F0FC81002070471FB51FBD10B53A
:1001700010BD00F0F8F91146FFF7F7FF04F03AFC64
:1001800000F016FA03B4FFF7F2FF03BC00F01EFA0A
:100190000948804709480047FEE7FEE7FEE7FEE71B
:1001A000FEE7FEE7FEE7FEE7FEE7FEE70448054957
:1001B000054A064B704700001F450008ED00000887
:1001C00068040020680A00206806002068060020F5
:1001D00053EA020C00F069802DE9F04B4FF0000665
:1001E000002B1FBFB3FA83F503FA05F424FA05F6D2
:1001F0005E4012BF1643B2FA82F502FA05F4C5F169
:1002000020051EBF22FA05FC44EA0C04203556EAFC
:10021000044C4FEA144418BF641C4FF000084FF020
:100220000009904271EB030C39D3002919BFB1FAD0
:1002300081F701FA07F6B0FA80F700FA07F6C7F17E
:1002400020071EBF20FA07FC46EA0C062037B6FB43
:10025000F4FCA7EB0507103F07F01F0BCBF12006BE
:100260000CFA0BFB2CFA06F644BFB3460026202FEF
:10027000A4BF5E464FF0000B5BEA060C08BF4FF0D0
:10028000010B19EB0B09ABFB027C48EB0608C01B0A
:1002900006FB02CC0BFB03CC71EB0C01C1E70B4658
:1002A000024641464846BDE8F08B13B54FF00000CA
:1002B0004FF00001AFF30080BDE81C407047B2F181
:1002C00020030AD5C2F1200320FA02F001FA03F359
:1002D00021FA02F140EA0300704721FA03F04FF0DF
:1002E000000170470FB41CB5074B06AA7B44694652
:1002F0000090059800F009F90020694600F018F90F
:100300001CBC5DF814FB0000410200002DE9F04127
:100310000E460446002020622046E168884730B33C
:10032000252805D0D4E901219047206A401CF2E736
:10033000E168204600278847050018D0A5F1410054
:10034000192802D820354FF4006732462946204646
:100350002760FFF705FF40B1012804D0F61D26F005
:1003600007060836D8E7361DD6E72846DAE7206ABA
:10037000BDE8F08170B50C460546012A05D0287805
:10038000800600D5EA69002302E0012305E05B1C3A
:10039000934202D2E05C0028F9D1A869E618C01A9D
:1003A000A861286A184428622846AFF3008004E058
:1003B000D5E9012114F8010B9047B442F8D328463F
:1003C000AFF3008070BD10B5431C02E010F8011BB4
:1003D00071B18107FAD14FF0013202C88C1A8C43F7
:1003E00014EAC211F9D0C01A0A0603D0C01E10BD0B
:1003F000C01A10BD0A0401D0801E10BD0902FCD035
:10040000401E10BD10B5203AC0F00B80B1E8185066
:10041000203AA0E81850B1E81850A0E81850BFF4EE
:10042000F5AF5FEA027C24BFB1E81850A0E818508D
:1004300044BF18C918C0BDE810405FEA827C24BFE1
:1004400051F8043B40F8043B08BF7047D20728BF6F
:1004500031F8023B48BF11F8012B28BF20F8023BBE
:1004600048BF00F8012B70474FF000020429C0F08C
:10047000128010F0030C00F01B80CCF1040CBCF1D6
:10048000020F18BF00F8012BA8BF20F8022BA1EB28
:100490000C0100F00DB85FEAC17C24BF00F8012B0D
:1004A00000F8012B48BF00F8012B70474FF0000205
:1004B00000B5134694469646203922BFA0E80C505A
:1004C000A0E80C50B1F12001BFF4F7AF090728BF35
:1004D000A0E80C5048BF0CC05DF804EB890028BFB1
:1004E00040F8042B08BF704748BF20F8022B11F0DA
:1004F000804F18BF00F8012B704770477047704756
:1005000001694A1C02610878704700B58FB0CDE9D7
:1005100001310021059105497944CDE903101146C7
:100520006846FFF7F3FE0FB000BD0000E5FFFFFFD8
:100530000A6802F8010B0A60704710B5436913B1ED
:10054000AFF3008001E0FFF715FF012010BD127826
:1005500000F124010A7000224A700122EDE71168BF
:100560004FF0FF32E9E7754600F02CF8AE46050083
:100570006946534620F00700854618B020B5FFF7BE
:1005800015FEBDE820404FF000064FF000074FF089
:1005900000084FF0000B21F00701AC46ACE8C009A1
:1005A000ACE8C009ACE8C009ACE8C0098D467047AA
:1005B00010B50446AFF300802046BDE81040FFF7B9
:1005C000E1BD0000004870470804002001491820E0
:1005D000ABBEFEE7260002007047000070B504467F
:1005E00000688168C943C90717D1816821F00101FA
:1005F000816000F0F9FF05460AE000BF00F0F4FF5B
:10060000401B022804D920688068C043C00706D078
:1006100020688068C043C007F0D0002070BDA06A89
:1006200040F01000A062E06A40F00100E0620120AA
:1006300070BD10B50146406A826A12F0500F05D0B5
:10064000006A026BBDE8104008461047816A41F419
:100650000071816201688968C1F3424107290CD1A8
:10066000017B51B9816A21F480718162816AC90478
:1006700003D4816A41F00101816200F02BFA10BDC0
:1006800010B5406A816A41F040018162C16A41F05F
:100690000401C16200F020FA10BD10B5406A00F0FC
:1006A0001AFA10BDF8B50026044600960068816865
:1006B000C943C9072DD0816841F001018160164806
:1006C00016490068B0FBF1F000E0401E00900028E1
:1006D000FBD100F089FF054616E000BF00F084FF63
:1006E000401B022810D920688068C043C0070BD087
:1006F000A06A40F01000A062E06A40F00100E062F1
:1007000084F824600120F8BD20688068C043C007D9
:10071000E4D10020F8BD00006400002040420F003A
:100720003EB5282000F0E0FC6424012301AA7021DA
:100730000948009401F03CF89DF80400000709D432
:1007400006A003230068029002AA702100940248C8
:1007500001F056F93EBD000004020020BE08000072
:100760007FB5054623A00C4600686426039003234A
:1007700003AA70210096204801F042F9502000F0B1
:10078000B3FC062301AA70211B48009601F010F863
:100790009DF8040000062CD49DF807009DF8061073
:1007A000000900EB01109DF8051000EB013005F089
:1007B00073FB124905F084FB6FF01306314605F018
:1007C00020FD20609DF807009DF808100007000B31
:1007D00000EB01209DF80910084405F05DFB084975
:1007E00005F06EFB314605F00CFD064905F034FCC2
:1007F00028607FBDAC330000040200200000C84226
:100800000000484300004842FEE70000014800F0B5
:100810005BBB0000C001002030B590F840500124BF
:10082000AC40C56B6C60046863604368102B036860
:1008300003D099600068C26030BD9A600068C160F2
:1008400030BD7047022000F0C1BD72B6FEE7000067
:1008500006490020C8610648016941F004010161B0
:10086000016941F04001016170470000E803002088
:1008700000200240064A0021D16106490A6942F07F
:1008800002020A614861086940F04000086170474F
:10089000E803002000200240044B0022DA61044AF1
:1008A000136943F00103136101807047E8030020DE
:1008B0000020024014480022C168CB06134904D529
:1008C000CA6942F00202CA611022C3685B0705D5FB
:1008D000CB6943F00103CB6142F00402C369DB073B
:1008E00007D0CB6943F00403CB61C16921F001015A
:1008F000C161A2F58071013901D0C2607047C16940
:1009000021F00101C161704700200240E80300208E
:1009100070B5054600F068FE0646114C09E0681CFB
:1009200007D025B100F060FE801BA84201D903204A
:1009300070BDE068C007F2D1E068800601D52020D4
:10094000E060E068C00605D4E069C00702D1E06855
:10095000400703D5FFF7AEFF012070BD002070BD3A
:100960000020024008C8521E08C192B2FAD2704755
:10097000F8B517460E460446002500F06BFCA4F1BE
:100980000060810A04EB8700A0F10060114AC1EB0E
:1009900090200121002301EB90201360C2E9024066
:1009A0006946104600F0B2FB38B90CE0002321463E
:1009B0000220326800F00EFC10B100F0FBFBF8BD25
:1009C000241D6D1C361DBD42F0DB00F0F9FB00203C
:1009D000F8BD000068000020F8B50024009490F8ED
:1009E00024202546012A12D0012280F824204A68BA
:1009F0001F23072A0DD20668776B521E02EB820274
:100A000093409F430B6893401F43776319E0022094
:100A1000F8BD06680D2A0AD2376BD21F02EB82029C
:100A200093409F430B6893401F43376309E0F76A85
:100A30000D3A02EB820293409F430B6893401F43A1
:100A4000F7620A68072306680A2A0AD3F7680A3A8F
:100A500002EB420293409F438B6893401F43F76031
:100A600008E0376902EB420293409F438B68934052
:100A70001F4337610A68102A01D0112A20D1124B76
:100A800002689A4217D193681B0219D4936843F401
:100A9000000393600968102912D10C490C4A0968B7
:100AA000B1FBF2F101EB8101490000E0491E009128
:100AB0000029FBD104E0816A41F020018162012418
:100AC00080F824502046F8BD002401406400002036
:100AD00040420F0070477047704700002DE9F04119
:100AE0004FF0000704003D467ED0A06A002628B9DA
:100AF000E66284F82460204600F07EF82046FFF786
:100B00006DFDA16AC90600D420B1A06A40F01000B2
:100B1000A06269E0A16A21F4885141F00201A1625A
:100B20006268E169237B0A4347EA43010A43A168FB
:100B30004FF48077B94209D0012907D05FF0000156
:100B400094F814C0BCF1010F02D00AE03946F7E76F
:100B5000F3B1A36A43F02003A362E36A43F0010305
:100B6000E3622368D3F804C02CF4694C4CEA010C0E
:100B7000C3F804C021688B68DFF870C003EA0C0377
:100B800013438B60A168B9420BD0012909D00CE056
:100B9000DFF85CC0A3690CEB43330B4343F4006103
:100BA000DFE7218A0D05A5F580152168CB6A23F4BE
:100BB00070032B43CB62216889680E4B1940914228
:100BC00008D1E662A16A21F0020141F00101A162AF
:100BD000BDE8F081A06A20F0020040F01000A062A1
:100BE000E06A40F00100E0620120F1E7FDF7E1FF7B
:100BF00000E0FFFFFE0E1FFF70B586B00025064621
:100C0000009501950295039500681A4988422ED1F6
:100C10001949886940F400708861886900F400709F
:100C20000490886940F0040088618869694600F092
:100C30000400049030200090032001900F4800F041
:100C4000D1FB104C0E48C4E900058020C4E90250D5
:100C500040002061800060612020C4E90605204634
:100C600000F0DCF908B1FFF7F0FD3462666206B00F
:100C700070BD000000240140001002400008014047
:100C800008000240C00100202DE9F04789460446D3
:100C90003B4900683B4F0E1D9046884201D0B84248
:100CA00007D1306810F4702F03D001252846BDE825
:100CB000F08794F8240001280CD0012084F8240047
:100CC0002046FFF7EFFC05004FF0000004D084F849
:100CD0002400EBE70220EAE7A16A40F601629143B3
:100CE00041F48071A1622168B94218D1326812F4CE
:100CF000702F14D0A16A41F48011A16231684905B6
:100D000005D5A16A21F4005141F48051A162A16A84
:100D1000C9040AD5E16A21F00601E16206E0A26A8F
:100D200022F48012A2624968E9E7E06284F82400B4
:100D3000216A15488862216A1448C862216A1448E9
:100D4000086321686FF0020008602068816841F440
:100D500080718160216843464A464C31206A00F028
:100D60008BF920688168C1F342410729816803D06B
:100D700041F48011816099E741F4A001FAE7000095
:100D80000024014000280140330600089B060008AB
:100D90008106000810B5044690F82400012807D009
:100DA000012084F824002046FFF718FC10B113E05E
:100DB000022010BD21688A6822F480728A60216A4C
:100DC00091F82120022A07D1084600F00EF8A16A06
:100DD00030B141F04001A162002184F8241010BD1F
:100DE00021F4885141F00101F5E710B590F8211088
:100DF0000022022905D00421816380F820200120EF
:100E000010BD01680B6823F00E030B6001680B68CE
:100E100023F001030B6090F84030C46B012101FA0C
:100E200003F3636080F8211080F82020104610BD85
:100E300010B590F821100024022903D00421816309
:100E400001243DE001680A6822F00E020A60016890
:100E50000A6822F001020A601A4A0168914201D12F
:100E6000012121E0174A1432914201D110211BE0E7
:100E7000144A2832914201D1891515E0114A3C32B9
:100E8000914201D189140FE00E4A5032914202D1B1
:100E90004FF4803108E00B4A6432914202D14FF4A2
:100EA000801101E04FF08071064A083A516001213B
:100EB00080F82110002180F82010416B01B1884793
:100EC000204610BD080002402DE9F05FC16B0C68A0
:100ED00001680B68D0F840C0042202FA0CF2494DB8
:100EE000DFF824A1494E4A4FDFF828B1DFF828E1A6
:100EF00022422CD05A072AD50A68920603D40A68DF
:100F000022F004020A600168A94201D1042219E01A
:100F1000514501D1402215E0B14202D14FF4806227
:100F200010E0B94202D14FF480420BE0594502D1A2
:100F30004FF4802206E0714502D14FF4800201E0B7
:100F40004FF080622F4908394A60C16A3BE04FF098
:100F5000020808FA0CF818EA040F4FF000094FF0E5
:100F6000010235D05FEA837832D50B689B0605D441
:100F70000B6823F00A030B6080F821200168A94266
:100F800001D1022219E0514501D1202215E0B142E0
:100F900002D14FF4007210E0B94202D14FF4005276
:100FA0000BE0594502D14FF4003206E0714502D101
:100FB0004FF4001201E04FF00072124908394A6004
:100FC00080F82090816A00291AD0BDE8F05F0847B8
:100FD000082505FA0CF5254212D01B0710D50B6821
:100FE00023F00E030B6090F84010C36B02FA01F17E
:100FF0005960826380F8212080F82090016BE2E73D
:10100000BDE8F09F080002401C0002403000024092
:1010100044000240580002406C00024030B528B342
:1010200008C8134914221944B1FBF2F18900C163C5
:1010300010498163022141771A6843F6F0718A43AF
:10104000D0E900142143D0E902452C43214304692F
:1010500021434469214384692143114319600021DC
:101060004163012242770177084630BD012030BD3F
:10107000F8FFFDBF0000024070B5044690F8200064
:10108000002501280CD0012084F8200094F821606C
:101090000020012E06D084F820000225284670BDCD
:1010A000022070BD022684F82160A06320680668D3
:1010B00026F0010606602046FFF7AEFBE06A002836
:1010C0002068016802D041F00E0106E021F0040121
:1010D00001602068016841F00A0101602068016830
:1010E00041F001010160D9E770B5044600F07CFAD7
:1010F0000546601C02D004480078044400F074FAED
:10110000401BA042FAD370BD580000202DE9F047E3
:10111000054626480F460126017E01290FD00121F0
:10112000814601762868DFF888804CF25034022826
:1011300008D0A2462046FFF7EBFBA8B131E0022021
:10114000BDE8F0872046FFF7E3FB08BB0120FFF76F
:101150007FFB2046FFF7DCFBD8F81010064621F095
:101160000401C8F810101CE04FF0FF303860AC6884
:1011700011E02046FFF77EFB5046FFF7C9FBD8F889
:101180001010060021F00201C8F8101001D03C60D8
:1011900007E004F58064D5E9020100EB8120A0425C
:1011A000E7D8002189F818103046C9E7E803002085
:1011B000002002400148C06970470000E803002099
:1011C0000348016941F0800101610020704700007F
:1011D000002002402DE9F05F07461C4888460024A5
:1011E000017E15461E46012909D00121814601765E
:1011F0004CF2503A5046FFF78BFB18B122E0022028
:10120000BDE8F09F012F02D0022F00D00427D34663
:10121000DFF83CA0220128463146FFF750F881B2A2
:1012200008EB4400FFF738FB5846FFF771FBDAF88C
:10123000102022F00102CAF8102018B9641CE4B290
:10124000BC42E7D3002289F81820D9E7E803002040
:1012500000200240064900200A69120607D5054A07
:101260004A60054A4A600969090600D501207047AD
:101270000020024023016745AB89EFCD2DE9F04303
:1012800000233E4F0F2573E001229A400A406DD0A3
:1012900023F00304E619D6F808809C074FEA147C73
:1012A00005FA0CF909EA0804DFF8D480404502D1B8
:1012B0004FF0000816E0DFF8CC80404502D14FF037
:1012C00001080FE0DFF8C080404502D14FF002086E
:1012D00008E0DFF8B880404502D14FF0030801E094
:1012E0004FF0040808FA0CF8A04522D1284CD4F895
:1012F00000C02CEA020CC4F800C0241DD4F800C0C1
:101300002CEA020CC4F800C0214C0C34D4F800C004
:101310002CEA020CC4F800C0241FD4F800C02CEA48
:10132000020CC4F800C0D6F808C02CEA090CC6F8B4
:1013300008C0FF2A01D8064601E000F104064FEA82
:10134000830401D9A4F12004D6F800C005FA04F8FA
:101350002CEA080C4FF0040808FA04F84CEA080CD0
:10136000C6F800C0C46824EA0204C46003F10103A3
:1013700031FA03F288D1BDE8F0830000000001409B
:1013800000080140000C0140001001400014014021
:101390000004014010B5022811D10221084800F0D4
:1013A00011F901280BD107480178002907D1012143
:1013B0000170BDE810404903034800F008B910BDB2
:1013C000000C01400800002000100140044910B545
:1013D0000A68024202D00860FFF7DCFF10BD00007F
:1013E000140401402DE9F84FDFF8B8910024A9F169
:1013F000040B23460F2709F1040AABF1040EC9E0E0
:101400000125A5402A40AA427DD1674ED1F804C0EB
:10141000ACEB0608B44532D014DCBCF1030F3AD073
:1014200009DCBCF1000F2AD0BCF1010F1CD0BCF1CB
:10143000020F31D11DE0BCF1110F17D0BCF1120F1A
:101440002AD119E0B8F5881F19D006DCB8F5803F1D
:1014500015D0B8F5801F1FD111E0B8F5001F0ED0D0
:10146000B8F5041F18D10AE0CB6815E0CB681B1D46
:1014700012E0CB6808330FE0CB680C330CE08B68CC
:101480002BB1012B4FF0080303D0456104E0042386
:1014900002E0056100E00023FF2A01D8064601E0D2
:1014A00000F104064FEA840501D9A5F12005D6F81C
:1014B000008007FA05FC28EA0C0803FA05F548EA5B
:1014C0000508C6F800804D68ED0062D5374DAE695D
:1014D00046F00106AE61AD6924F0030605F0010592
:1014E0000095334D06EB050CDCF80850A607360FC7
:1014F00007FA06F825EA0805DFF8B880404503D169
:101500004FF0000817E044E0DFF8AC80404502D11E
:101510004FF001080FE0DFF8A480404502D14FF002
:10152000020808E0DFF89880404502D14FF0030838
:1015300001E04FF0040808FA06F848EA0508CCF87C
:1015400008804D68D9F80060ED024D4601D516437C
:1015500000E096432E604D68DAF80060AD02554613
:1015600001D5164300E096432E604D68DBF800601D
:10157000AD035D4601D5164300E096432E604D68ED
:10158000DEF80060ED03754601D5164300E0964392
:101590002E60641C0D682A46E5407FF431AFBDE83B
:1015A000F88F0000080401400000111000100240F4
:1015B0000000014000080140000C01400010014003
:1015C000001401408068084000D001207047C268C4
:1015D00021EA02030A4043EA0241016170470AB16D
:1015E000016170470904FBE701488068704700000B
:1015F0005800002010B5040013D0242084F83D00CA
:101600002068016821F001010160204600F08EFA97
:101610000020206484F83D0044F8300FA07320734C
:1016200010BD012010BD000070B5040025D094F855
:101630003D00002520B984F83C50204600F092FA85
:10164000242084F83D002068016821F00101016038
:101650002068016841F4004101602068016821F4BC
:101660000041016000F0C4FC4D4A6168914201D81C
:101670004C4900E04C49884201D2012070BD4B49E1
:101680002368B0FBF1F15E6826F03F060E435E6012
:101690006368934206D94FF4967359434FF47A73B3
:1016A000B1FBF3F12368491C1E6A26F03F06314363
:1016B00019626168914210D84900401EB0FBF1F2F6
:1016C000521CC2F30B02042A01D2042022E0B0FB18
:1016D000F1F0401CC0F30B001CE0A268F2B301EB78
:1016E000C10303EB0116431EB3FBF6F35B1C43F48B
:1016F00080431B0549D092B301EBC10202EB0111FB
:10170000401EB0FBF1F0401CC0F30B0040F48040E1
:1017100040F400402168CA694CF6FF739A431043B5
:10172000C861D4E9071001432068026822F0C002B2
:1017300011430160D4E9030101432068826848F243
:10174000FF339A4311438160D4E9050108432168BE
:10175000CA6822F0FF021043C86001E00EE016E004
:101760002068016841F0010101602564202084F8AF
:101770003D00256384F83E50002070BD01EB41061A
:10178000431EB3FBF6F35B1CB3E70120C2E701EB9A
:101790004101401EB0FBF1F0401CC0F30B00B7E765
:1017A000A086010080841E0000093D0040420F0019
:1017B0002DE9F84F0025DDF82890984617468A460F
:1017C00004460095FFF710FF064694F83D002028D8
:1017D0007AD11923012286492046009601F0D2FFD2
:1017E0000028F5D194F83C0001286DD0012084F840
:1017F0003C0020680168C90703D1016841F001017C
:1018000001602068016821F400610160222084F8F1
:101810003D00102084F83E0025646762A4F82A8009
:10182000608D20857348E06233464A465146204623
:1018300001F0B8FE00287CD1208DDFF8BC81202784
:1018400068B1012814D00228206801681ED041F434
:10185000806101602068416980690090BBE0206878
:10186000416981690091016841F400710160B2E051
:101870002068016821F48061016072B620684169C6
:1018800081690091016841F400710AE041F400614E
:10189000016072B62068416981690091016821F494
:1018A0008061016062B696E0032865D801280CD0FB
:1018B00002284B464FF000024146204600960BD0CE
:1018C00001F060FFA8BB0CE090E03246494620469C
:1018D00001F0FEFF68BB71E001F054FF48BB72B637
:1018E00033E02068016821F48061016072B62068ED
:1018F0000069616A0870606A401C6062208D401E49
:101900002085608D401E60853C4846F2A811006825
:10191000B0FBF1F0C0EBC00000EB80000090401E77
:10192000009007D020684069C04340070DD500985B
:10193000F5E727E044F8305F6773A573206940F04E
:101940002000206162B625731CE02068016841F424
:101950000071016020680069616A0870606A401C5B
:101960006062218D491E2185618D491E618562B6A7
:1019700021680969017025E032464946204601F098
:10198000A7FF10B10120BDE8F88F20680069616AE7
:101990000870606A401C6062208D401E81B2218503
:1019A000608D401E608520684269D243520712D480
:1019B000032903D1016821F4806101602068006976
:1019C000616A0870606A401C6062208D401E20853C
:1019D000608D401E6085208D00287FF465AF84F8FF
:1019E0003D7084F83E5084F83C50CCE70220CAE7B2
:1019F000020010000000FFFF04000100640000204E
:101A00002DE9F84F1F4690468A460446DDF8289097
:101A1000FFF7EAFD054694F83D0020287FD1192301
:101A2000012240492046009501F0ACFE002876D105
:101A300094F83C00012872D0012084F83C00206812
:101A40000168C90703D1016841F001010160206804
:101A5000016821F400610160212084F83D0010201C
:101A600084F83E0000262664C4F824806785608DD3
:101A700020852D48E0622B464A465146204601F01B
:101A800007FE90B9206841698069009036E02A46D7
:101A90004946204601F054FF50B1206C042804D17F
:101AA0002068016841F4007101600120BDE8F88FF1
:101AB000606A216800780861606A401C6062618D1C
:101AC000491E6185218D491E89B22185226853698D
:101AD000DB435B070BD451B100781061606A401C96
:101AE0006062608D401E6085208D401E20852A46E4
:101AF0004946204601F01AFE0028CED1208D00284C
:101B0000C5D154F83D0B016841F4007101602020FB
:101B100004F81E09E67766770020C7E7FFE7022092
:101B2000C4E70000020010000000FFFF10B50068CD
:101B3000094988420FD10948C16921F40011C161E6
:101B4000074C81152046FFF799FB61152046BDE83B
:101B50001040FFF793BB10BD00540040001002403E
:101B6000000C014010B586B0002100910191029156
:101B7000039100681349884222D1134CA06940F0B8
:101B80000800A061A069694600F0080004904FF4C5
:101B90004070009012200190032003900B48FFF743
:101BA00021FC0B48416841F0E06141F002014160D5
:101BB000E06940F40010E061E06900F40010049076
:101BC00006B010BD0054004000100240000C01405F
:101BD000000001400248816802781144816070472A
:101BE00058000020074810B5016841F0100101605D
:101BF000032000F075F80F2000F006F800F024F83C
:101C0000002010BD0020024070B50D4D04464FF479
:101C10007A712878B1FBF0F00A490968B1FBF0F05D
:101C200001F033F948B9102C07D200222146501E8A
:101C300000F036F800206C6070BD012070BD00001F
:101C400058000020640000200C4808B5816941F06C
:101C500001018161816901F001010091C16941F0D7
:101C60008051C161C06900F0805000900448416813
:101C700021F0E06141F00071416008BD00100240B8
:101C800000000140002809DB00F01F020121914003
:101C90004009800000F1E020C0F80011704700000A
:101CA000F0B40E4B1B680C46C3F30223C3F10705C7
:101CB000042D00D90425191D072901D2002300E0B5
:101CC000DB1E012606FA05F1491E214099409E407F
:101CD000761E16403143F0BC02F0D9BD0CED00E099
:101CE000064900F0070208684FF6FF03184040EA73
:101CF0000220034A10430860704700000CED00E02A
:101D00000000FA05BFF34F8F05480168054A01F44A
:101D1000E06111430160BFF34F8F00BFFDE700009A
:101D20000CED00E00400FA0501490120086270474B
:101D300000000E4210B501460020234C012922D09C
:101D4000022939D010291DD161682268D20119D524
:101D50001E48C1F38342C903805C0AD561681B4AEF
:101D6000C1F34041921E515C194AB2FBF1F1484364
:101D700001E0184948436168490203D44000032147
:101D8000B0FBF1F010BD226AC2F30121012903D199
:101D9000920701D5C80310BD022905D1626A9207D6
:101DA00002D549F6404010BD0329FCD121688903C2
:101DB000F9D54FF2244010BD00F02AF96168C1F353
:101DC0008131491C4900DBE70010024092640008A1
:101DD00000127A0000093D002DE9F843054600781D
:101DE000354CC00754D0E0690026C00008D4E06933
:101DF00040F08050E061E069012600F080500090E2
:101E00002E480168C90512D40168804641F48071EA
:101E10000160FFF7E9FB074605E000BFFFF7E4FBC1
:101E2000C01B642823D8D8F80000C005F6D5206A66
:101E300010F4407021D0A98801F4407181421CD077
:101E4000206A1F49012220F440700A6000220A60C3
:101E50002062C00711D0FFF7C7FB074641F2883860
:101E600008E000BFFFF7C0FBC11B414502D90320BA
:101E7000BDE8F883206A8007F4D5206A696820F4F9
:101E80004070084320621EB1E06920F08050E0619C
:101E90002878800705D56068A96820F44040084389
:101EA00060602878C00605D56068E96820F4800085
:101EB000084360600020DBE7001002400070004033
:101EC000400442422DE9F0470F46050061D0434EE1
:101ED000306800F00700B84209D2306820F00700EF
:101EE00038433060306800F00700B84251D12868AC
:101EF0003B4C810712D5400703D5606840F4E06091
:101F000060602878000703D5606840F46050606026
:101F10006068A96820F0F000084360602878C00776
:101F200028D06868012810D02168022810D08907BD
:101F300000292EDA616821F0030101436160FFF797
:101F400053FB804641F288390DE021688903EFE7B1
:101F50008901EDE7FFF748FBA0EB0801494502D9ED
:101F60000320BDE8F0876068696800F00C00B0EB02
:101F7000810FEFD1306800F00700B8420BD930680C
:101F800020F0070038433060306800F00700B842A6
:101F900001D00120E5E72878400705D56068E968A9
:101FA00020F4E060084360602878000706D5606888
:101FB000296920F4605040EAC100606000F038F800
:101FC0006168084AC1F30311515CC84006490860C2
:101FD00006480068FFF718FE0020C2E70020024014
:101FE00000100240A2640008640000205C00002091
:101FF0000448054900684968044AC1F30221515C5C
:10200000C84070476400002000100240B26400081D
:102010000448054900684968044AC1F3C221515C7B
:10202000C84070476400002000100240B2640008FD
:102030000E4A51680E4801F00C03042B11D0082BF6
:102040000FD10C48C1F38343C903C05C0AD5516862
:10205000084AC1F34041921E515C054A5043B0FB0F
:10206000F1F07047044948437047000000100240F7
:1020700000127A008064000800093D002DE9F84F45
:10208000040070D02078C04DC00749D06868C0F304
:102090008100012807D06868C0F38100022809D1B7
:1020A0006868C00306D52868800339D560680028B1
:1020B000E7D035E06068B0F5803F0BD010B1B0F5E7
:1020C000A02F11D0286820F480302860286820F4E0
:1020D000802002E0286840F480302860606890B179
:1020E000FFF782FA06460AE0286840F4802028605C
:1020F000F0E700BFFFF778FA801B642873D82868E0
:102100008003F7D50CE0FFF76FFA064605E000BF45
:10211000FFF76AFA801B6428F0D828688003F7D498
:1021200020789A4E80074FF001094FF0000839D50A
:10213000686810F00C0F07D06868C0F381000228AF
:1021400009D16868C00306D42868800714D52069BF
:10215000012808D110E02069B0B1C6F80090FFF75F
:1021600043FA074605E00AE1FFF73EFAC01B0228E2
:10217000C4D828688007F7D52868616920F0F8007E
:1021800040EAC10028600DE0C6F80080FFF72CFA95
:10219000074604E0FFF728FAC01B022823D8286866
:1021A0008007F7D4207800072CD57948A169D9B1E8
:1021B000C0F80090FFF718FA074604E0FFF714FA9A
:1021C000C01B02280FD8686A8007F7D571484FF402
:1021D000FA510068B0FBF1F0009000BF0098411E7A
:1021E0000091FAD20EE080E0C0F80080FFF7FCF921
:1021F000074604E0FFF7F8F9C01B022875D8686AA3
:102200008007F7D42078400760D5E8690027C00030
:1022100008D4E86940F08050E861E869012700F0DF
:10222000805000905C480168C90513D4016883465A
:1022300041F480710160FFF7D7F9824606E000BFE4
:10224000FFF7D2F9A0EB0A0064284ED8DBF80000B3
:10225000C005F5D5E06801280AD008B1052813D0DB
:10226000286A20F001002862286A20F0040002E0B9
:10227000286A40F001002862E06841F2883B98B18A
:10228000FFF7B2F982460BE0286A40F004002862AA
:10229000EEE700BFFFF7A8F9A0EB0A0159455AD8AD
:1022A000286A8007F6D50CE0FFF79EF9824605E024
:1022B000FFF79AF9A0EB0A0159454CD8286A800724
:1022C000F6D41FB1E86920F08050E861E06988B376
:1022D0006968C1F38101022944D00228C6F86080F0
:1022E00004D0FFF781F9044638E034E0FFF77CF9C9
:1022F000074604E0FFF778F9C01B02282BD82868AE
:102300008001F7D4206AB0F5803F05D16868A168E4
:1023100020F4003008436860D4E908010843696884
:1023200021F4741108436860C6F86090FFF75CF907
:10233000044606E025E000BFFFF756F9001B02281F
:1023400009D828688001F7D51BE000BFFFF74CF9DA
:10235000001B022802D90320BDE8F88F28688001FD
:10236000F4D40EE00128F7D06868226A00F48031C6
:10237000914204D1616A00F47010884201D00120BA
:10238000EAE70020E8E700000010024000004242B7
:10239000800442426400002000700040024850F86F
:1023A000210080B270470000006C0040024800EB42
:1023B000810091B201607047006C0040FFF7A2BC41
:1023C000704710B5044600680168C90717D0416816
:1023D000C90714D040684007204607D5FFF7F0FF33
:1023E00021686FF004004860042002E0FFF7E6FF78
:1023F000012060742068416821F00101416010BD36
:102400002DE9F04791460C465FEA00084AD084B3B4
:10241000D8F800004068400744D4404601F069FE07
:102420004FF461620546B0FBF2F1B0FBF2F302FB40
:1024300013503C23B0FBF3F0B5FBF2F6607002FBE7
:102440001650B0FBF3F203FB1200A070182931D331
:102450001820B1FBF0F7B1FBF0F200FB1210207076
:10246000404601F03FFE411C04D0A84202D9461B61
:1024700002E017E04FF0FF36A7EB071000EB40003B
:10248000C0EB001005EBC0152946404601F080FE68
:1024900040B9701C01D0711900E03146404601F08E
:1024A00063FE10B10120BDE8F0873946404601F0D7
:1024B00086FD00E02170B9F1000F0BD0207801F00B
:1024C00073FD2070607801F06FFD6070A07801F0FE
:1024D0006BFDA0700020E6E770B5040003D0607CBF
:1024E000002610B105E0012070BD2674204600F0E2
:1024F0003DF802206074204600F08AF9042550BBA4
:10250000204601F0B3FD30BB2068416821F007018F
:102510004160A06820B11448016821F00101016008
:102520001148001F0168A26821F460711143016025
:102530006068411C04D10120FFF7FCFB58B1401E2C
:102540002268C0F303419160216880B2C8602046D0
:1025500001F0A6FD08B16574C5E7E673012060735C
:10256000A0736074002070BD306C004008B5006836
:102570000D49884217D1FFF7D7FB0C48C16941F0DC
:102580000061C161C0690A4900F00060009001204B
:102590000860002211460320FFF782FBBDE80840D7
:1025A0000320FFF76FBB08BD002800400010024069
:1025B0003C0442422DE9F8434FF0000617460D4611
:1025C000040000960FD075B1207C01280ED04FF08A
:1025D000010984F8109002206074002269462046A8
:1025E000FFF70EFF20B10120BDE8F8830220FBE7D2
:1025F0009DF800004FF4616148439DF80110C1EB64
:10260000011100EB81009DF8021000EB0108287811
:10261000E7B101F0C0FC4FF4616100FB01F768789D
:1026200001F0B9FCC0EB001007EB8007A87801F0BF
:10263000B2FC3918414501D217480144204601F047
:1026400093FD70B1042060742674CCE74FF461618F
:1026500048436978C1EB011100EB8100A97801447E
:10266000E8E72068416821F00201416020680168C4
:1026700041F0020101600948016841F40031016044
:1026800006480830016841F40031016084F8119077
:1026900026740020A8E700008051010000040140DA
:1026A0002DE9F0410D4604003BD0C5B3207C012844
:1026B0003AD04FF0010884F8108002206074E87866
:1026C00072B301F068FCE073687801F064FC607339
:1026D000A87801F060FCA073C2B2617BE07B01F0DE
:1026E00018FD20732870204601F003FD4FF461614E
:1026F000B0FBF1F1002518292DD91822B1FBF2F118
:10270000A1EB011101EB4101C1EB011100EBC1167D
:102710003146204601F03CFD0427C8B90BE000E03B
:1027200004E00120BDE8F0810220FBE7E073687857
:102730006073A878CFE7204601F0D4FC411C0AD092
:10274000B04208D206490144204601F00DFD10B107
:1027500067742574E5E784F8118025740020E1E7AB
:10276000805101002DE9F0410D46040024D01DB335
:10277000207C012823D04FF0010884F8108002202B
:1027800060742878EAB101F006FC4FF4616100FB47
:1027900001F6687801F0FFFBC0EB001006EB800645
:1027A000A87801F0F8FB35182946204601F0F0FC26
:1027B0000026042710BB0FE00120BDE8F0810220B5
:1027C000FBE74FF4616148436978C1EB011100EB0D
:1027D0008100A9784518E7E72068416821F00501E4
:1027E0004160204601F07EFC411C0AD0A84208D27C
:1027F00006490144204601F0B7FC10B16774267405
:10280000DAE784F8118026740020D6E780510100B1
:1028100070B504000AD02068416821F008014160C9
:10282000FEF7E2FE05464FF47A7608E0012070BD1F
:10283000FEF7DAFE401BB04201D9032070BD2068CC
:1028400040680007F4D5002070BD10B5040011D019
:10285000022084F851002068016821F040010160E5
:10286000204600F065F80020606584F8510084F887
:10287000500010BD012010BD90F85100704770B598
:10288000040009D0606A002540B125616561A56238
:1028900094F8510040B10CE0012070BD6068B0F5C3
:1028A000827FF4D0E561F2E784F85050204600F0D2
:1028B00053F8022084F851002068016821F040019B
:1028C0000160A088218900F4827001F4044108436A
:1028D000A18901F400610843217C01F00201084351
:1028E000217D01F001010843218B01F400710843AF
:1028F000217F01F03801084394F8201001F0800195
:102900000843218D01F40051084321680860A06943
:10291000042101EA1040216848602068C16921F45F
:102920000061C1616565012084F85100002070BD1F
:1029300000680649884208D10548816921F4805120
:10294000816138210348FEF799BC7047003001408F
:1029500000100240000C014030B585B00024009406
:102960000194029403940068174988422AD11748B9
:10297000816941F480518161816901F48051049140
:10298000816941F0080181618069114D00F0080002
:1029900004902820009002200190032003906946B3
:1029A0002846FEF71FFD1020CDE9000469462846A1
:1029B0000294FEF717FD0748416841F0E06141F0DD
:1029C0000101416005B030BD0030014000100240FF
:1029D000000C0140000001402DE9F84F044690F83A
:1029E0005100984616460F460025012801D00225C1
:1029F00098E060684FF0040BB0F5827F01D1A068C9
:102A0000F8B194F85000012826D04FF0010984F85D
:102A10005090FEF7E9FD8246002F7FD0002E7DD03A
:102A200084F851B000206065A763A687E68720631D
:102A3000A086E08620646064A068B0F5004F0DD0E9
:102A400016E084F851B013460A462046CDF80080BF
:102A500000F024F9BDE8F88F0220FBE72068016848
:102A600021F0400101602068016821F4804101608B
:102A700020680168490603D4016841F04001016003
:102A8000E068D8B13BE020688168C90709D0007BC5
:102A9000A16B0870A06B401CA063E08F401EE08714
:102AA0000CE0FEF7A1FDA0EB0A01414503D3B8F10C
:102AB000FF3F03D006E0B8F1000F03D0E08F0028FD
:102AC000E1D11FE003252BE020688168C90709D008
:102AD000C068A16B0880A06B801CA063E08F401EC3
:102AE000E0870CE0FEF780FDA0EB0A01414503D32F
:102AF000B8F1FF3F03D0E5E7B8F1000FE2D0E08F77
:102B00000028E1D152464146204601F02BFC08B195
:102B100020206065606D00E000E008B1012501E063
:102B200084F85190002084F85000284692E72DE95F
:102B3000F84F044690F850000026984615468A46FD
:102B400001280CD0012784F85070FEF74DFD814616
:102B500094F85100B346012804D002269AE00220DE
:102B6000BDE8F88FBAF1000F6FD0002D6DD00320B3
:102B700084F85100C4F854B0C4F830A0A586E586A6
:102B8000C4F838B0A4F83CB0A4F83EB0C4F844B0DF
:102B9000C4F840B0A068B0F5004F09D120680168C2
:102BA00021F0400101602068016841F4804101602A
:102BB00020680168490603D4016841F040010160C2
:102BC000E068B0F5006F606803D058B3012D29D0DC
:102BD00049E008B1012D1FD1206B21680088C86031
:102BE00006E020688168890709D5216B0988C160E2
:102BF000206B801C2063E08E401EE0860CE0FEF718
:102C0000F3FCA0EB0901414503D3B8F1FF3F03D02A
:102C100006E0B8F1000F03D0E08E0028E1D125E0F6
:102C2000032635E0206B21680078087306E02068F1
:102C3000816889070AD5216B09780173206B401CD4
:102C40002063E08E401EE0860DE01FE0FEF7CCFC26
:102C5000A0EB0901414503D3B8F1FF3F03D0DFE703
:102C6000B8F1000FDCD0E08E0028E0D14A464146A2
:102C7000204601F0A5FB08B120206065A06818B9C6
:102C80002068C16880680090606D08B1012601E08D
:102C900084F8517084F850B0304661E72DE9FF4F59
:102CA00081B0044690F8500000260E9F1D469346C2
:102CB0004FF0010901280FD04FF0010A84F850A00D
:102CC000FEF792FC804694F85100616801280DD00F
:102CD000B1F5827F08D103E0022005B0BDE8F08F96
:102CE000A16809B9042801D00226C9E00298002889
:102CF00065D0BBF1000FFBD0002DF9D094F8510046
:102D0000042802D0052084F8510000206065C4F832
:102D100038B0E587A58702992163E586A5862064FA
:102D2000606420680168490603D4016841F04001ED
:102D30000160E068B0F5006F606803D0F0B3012D6A
:102D400047D081E008B1012D3CD1206B216800887B
:102D5000C860206B801C2063E08E401EE08631E05E
:102D60002068816889070FD5E18E69B1B9F1010F3B
:102D70000AD1216B0988C160206B801C2063E08E22
:102D8000401EE0864FF0000920688168C9070CD01A
:102D9000E18F51B1C068A16B0880A06B801CA0635B
:102DA000E08F401EE0874FF00109FEF71DFCA0EB0D
:102DB0000800B84206D3781C04D001E009E05BE0CB
:102DC00003265BE0E08E0028CAD1E08F0028C7D13F
:102DD00040E0206B216800780873206B401C206362
:102DE000E08E401EE0862FE02068816889070FD5BD
:102DF000E18E69B1B9F1010F0AD1216B0978017334
:102E0000206B401C2063E08E401EE0864FF00009DE
:102E100020688168C9070CD0E18F51B1C068A16BEF
:102E20000870A06B401CA063E08F401EE0874FF04D
:102E30000109FEF7D9FBA0EB0800B84202D3781CC9
:102E400002D0BAE7002FB8D0E08E0028CCD1E08FB6
:102E50000028C9D142463946204601F0B1FA18B1DE
:102E60000126202060650BE0A06818B92068C168C1
:102E700080680090606D08B1012601E084F851A0DF
:102E8000002084F85000304627E710B5401EB0F10E
:102E9000807F01D3012010BD4FF0E02460610F213D
:102EA000601701F0F4FC0020A061072020610020E1
:102EB00010BD000070B590F83C20012A26D00124F6
:102EC00080F83C40022280F83D2003685A689D68E3
:102ED00022F070060A6832435A600D4B02689A422B
:102EE00008D0B2F1804F05D00A4B9A4202D00A4B6B
:102EF0009A4204D1496825F080031943916080F813
:102F00003D40002180F83C10084670BD022070BD95
:102F1000002C0140000400400008004010B50400EF
:102F200003D094F83D0010B107E0012010BD00204F
:102F300084F83C00204600F01FF8022084F83D0091
:102F4000211D206801F0ECFA012084F8460084F885
:102F50003E0084F83F0084F8400084F8410084F883
:102F6000420084F8430084F8440084F8450084F863
:102F70003D00002010BD000008B5006806498842E9
:102F800008D10648816941F400618161806900F4DB
:102F90000060009008BD0000002C014000100240BD
:102FA00070B5044690F83C000025012817D0012692
:102FB00084F83C60022084F83D002068826822F09A
:102FC000770222F47F4282600868502838D00DDCF6
:102FD00020284FD005DC90B3102811D14AE0022000
:102FE00070BD302846D040280AD13BE060282FD061
:102FF00070280DD0B0F5805F03D0B0F5005F12D01F
:10300000012584F83D60002084F83C00284670BD0E
:10301000CB68D1E90121206801F0B8FA2068816805
:1030200041F0770109E0CB68D1E90121206801F086
:10303000ADFA2068816841F480418160E1E719E0E0
:10304000CA684968206801F0B3FA5021206806E098
:10305000CA684968206801F0BCFA6021206801F064
:103060009FFACEE7CA684968206801F0A1FA4021BA
:103070002068F4E7226801461046F0E718B50346D9
:1030800090F84200202801D0022018BD61B15AB149
:103090000120186300205863184601F099FB0028AE
:1030A000F3D1196B012901D0012018BD19680A68F4
:1030B0004968009119680C3151E8002F42F0100264
:1030C00041E80024002CF5D118BD0000064830F876
:1030D000031F4ABA05490A8040880F2240BA488037
:1030E00001490348FFF7CABF8001002020000020EB
:1030F0000C03002070470000F8B50168044608681A
:10310000CA684B6910F00F0F4FF0000559D003F05B
:10311000010602F49077374365D0C10705D0D10589
:1031200003D5616C41F001016164410705D5D90700
:1031300003D0616C41F002016164810705D5D907B4
:1031400003D0616C41F004016164010707D502F00E
:103150002001314303D0616C41F008016164616C6E
:1031600000293AD0800604D5900602D5204601F009
:1031700071FA20684069616CC0F38010090700D4BF
:1031800060B3204601F03FFA20684069400621D52F
:103190002068143050E8001F21F0400140E8001280
:1031A000002AF5D1E06BA8B16D494163E06BFDF7F2
:1031B0003FFE002811D0E06B416B01B0BDE8F0404C
:1031C000084783060FD593060DD52046BDE8F84085
:1031D00001F040BA2046FFF78DFFF8BD2046FFF70B
:1031E00089FF6564F8BD266B2023012E7CD1C606BD
:1031F0007AD5D60678D508684868009048694FF0B7
:103200000206400640D5E16B086840680004000CE7
:10321000E8D0A28D8242E5D9E085886920282DD0AA
:1032200020680C3050E8001F21F4807140E8001243
:10323000002AF5D12068143050E8001F21F0010168
:1032400040E80012002AF5D12068143050E8001F31
:1032500021F0400140E80012002AF5D184F8423004
:10326000256320680C3050E8001F21F0100140E871
:103270000012002AF5D1E06BFDF7B7FD6663A08D63
:10328000E18D401A81B22AE0A08DE18D401A81B211
:10329000E08D0028A6D00029A4D022680C3252E884
:1032A000000F20F4907042E80007002FF5D120684D
:1032B000143050E8002F22F0010240E80027002FD0
:1032C000F5D184F84230256320680C3050E8002F97
:1032D00022F0100240E80023002BF5D1666320465F
:1032E000FFF7F4FEF8BDFFE705062BD5150629D537
:1032F00094F841002128F5D1A068B0F5805F01D194
:103300002069B0B1206A411C2162216800784860C0
:10331000E08C401E0004000CE084E3D12068C1680A
:1033200021F08001C1602068C16841F04001C160A6
:10333000D8E7206A0088C0F308004860206A801C33
:103340002062E5E74006CDD55006CBD5CA682046B9
:1033500022F04002CA6084F8413000F009F9C1E768
:10336000F745000870B5040004D094F8410000252A
:1033700010B106E0012070BD84F84050204600F0F6
:1033800023F8242084F841002068C16821F400510A
:10339000C160204601F0C0F92068016921F4904124
:1033A00001612068416921F02A0141612068C168FA
:1033B00041F40051C1606564202084F8410084F824
:1033C00042006563002070BDF0B585B00024009414
:1033D0000194029403940368384F02203849032271
:1033E000384D4602BB4228D18B6943F480438B6140
:1033F0008B6903F4804304938B6943F004038B616E
:103400008969039201F0040104910102CDE90010E1
:1034100069462846FDF7E6FFCDE90064694628467F
:103420000294FDF7DFFF002211462520FEF738FC4D
:103430002520FEF727FC05B0F0BD234FBB4219D174
:10344000CB6943F40033CB61CB6903F400330493BD
:103450008B6943F004038B618969039201F00401D5
:1034600004910421CDE9001069462846FDF7BAFF12
:1034700008201BE0154DAB42DDD1CB6943F480231E
:10348000CB61CB6903F4802304938B6943F0080379
:103490008B6189690E4D01F00801CDE90321CDE969
:1034A000006069462846FDF79DFFE814CDE9000459
:1034B000694628460294FDF795FFBCE700380140B5
:1034C0000010024000080140004400400048004055
:1034D000000C014070472DE9F843044690F8410084
:1034E0001F4616460D46202802D00220BDE8F8836C
:1034F0007DB176B100206064212084F84100FEF7A0
:1035000073F8A6848046E684A068B0F5805F02D098
:1035100003E00120EAE7206910B12E4600250EE005
:1035200000260CE08021204601F06DF9A0B9AEB173
:1035300016F8010B21684860E08C401EE084E08CA6
:1035400043464FF0000200970028EBD14FF04001B6
:10355000204601F058F930B10320C7E735F8020BD7
:10356000C0F30800E6E7202084F841000020BDE712
:103570007047FEE701684A69D24352050FD46FF4E1
:1035800080624A61002140F8301F2022427381731B
:10359000026942F0040202610173012070470020B9
:1035A000704700002DE9F84F0446C06A1E46934656
:1035B0000D4621680A6842F480620A60082807D034
:1035C000012805D010F5803F02D0206B112804D1CE
:1035D0002068016841F4807101604FF001195B4679
:1035E000002249462046009600F0CCF84FF40078BF
:1035F00040B120680068C00501D5C4F840800320B0
:10360000BDE8F88F2069DFF884A0B0F5804F0FD0B7
:103610000620216800EAD51747F0F000086133461C
:103620005A460AF10601204600F0F4F858BB03E0C0
:10363000E8B240F001001CE02168E8B208613346BE
:103640005A465146204600F0E5F8E0B92068416945
:1036500081690091016841F4807101605B4600223C
:1036600049462046009600F08DF80028C1D147F069
:10367000F1002168086133465A465146204600F061
:10368000C9F80028BCD00120BAE700000200010000
:10369000F8B50446C06A1E460D461746082807D0EE
:1036A000012805D010F5803F02D0206B122804D1EC
:1036B0002068016841F480710160134600224FF0D8
:1036C00001112046009600F05DF840B120680068C6
:1036D000C00502D54FF4007020640320F8BD2069B6
:1036E000B0F5804F0ED00620216800EAD51040F0DA
:1036F000F000086133463A460B49204600F08AF84C
:1037000078B902E005F0FE0000E0E8B22168086147
:10371000054933463A46891F204600F07BF80028C9
:10372000DCD00120F8BD00000800010070B516468D
:103730000D4604461EE02046FFF71CFF08B101209D
:1037400070BD681C16D0FDF74FFF801BA84200D843
:1037500085B920684069C04340070BD5002044F874
:10376000300F20216173A073216941F02001216194
:103770002073E4E720684069C0434007DBD40020A1
:1037800070BD00002DE9F047984617460D460446E7
:10379000C1F30746DDF820902AE000BFB8F1FF3FF3
:1037A00026D0FDF721FFA0EB0901414502D8B8F171
:1037B000000F1DD12068012E16D0806925EA000077
:1037C0000004000C12D00020B84211D1002044F8AF
:1037D000300F20216173A073216941F02001216124
:1037E00020730120BDE8F0874069E7E70120EBE79F
:1037F0002068012E0AD0806925EA00000004000C30
:1038000006D00020B842C9D00020EBE74069F3E7BA
:103810000120F7E72DE9F047984616460D46044685
:103820004FF000094FF0200AC1F3074723E020685A
:103830004069C043400515D42068016841F4007117
:10384000016021686FF480604861C4F8309084F8AA
:103850003DA084F83E90216C41F00401216484F87D
:103860003C9021E0701C06D0FDF7BEFEA0EB0800E6
:10387000B04203D816B1012F1FD021E02068012FDC
:1038800015D0806925EA00000004000C18D000BFA4
:1038900044F8309F84F80DA084F80E90216941F01F
:1038A0002001216184F80C900120BDE8F087406977
:1038B00025EA00000004000CEAD12068406901E01C
:1038C0002068806925EA00000004000CAFD1ECE715
:1038D0002DE9F041002590460E460446202728E0B9
:1038E0004069C043C0060CD454F8301B6FF0100080
:1038F000486144F810596777A577206A20622577D8
:1039000014E0FDF771FEA0EB0800B04200D886B9C4
:1039100020684069C04340060BD544F8305F6773A8
:10392000A573206940F02000206125730120BDE8C7
:10393000F08120684169C9434906D1D40020F6E7E7
:1039400070B516460D4604461EE02046FFF712FEEF
:1039500008B1012070BD681C16D0FDF745FE801B24
:10396000A84200D885B920684069C04300060BD53D
:10397000002044F8300F20216173A073216941F0C9
:10398000200121612073E4E720684069C0430006FC
:10399000DBD4002070BD000030B599B00C46054660
:1039A00064216846FCF782FD23462A4607A1684643
:1039B000FCF798FC6846FCF706FD82B26423694672
:1039C0000448FFF788FD19B030BD000025733A2088
:1039D00025730A00540300203EB501F0ADF8052020
:1039E000FDF782FB00F07CF96420FDF77DFB01F020
:1039F00087F94BF6BB30ADF800001F4C4CF6AC20FD
:103A0000ADF80200A078ADF80400D4E90A01002264
:103A10001A4B01F0E3FE01F089FEADF80600032128
:103A20001748FEF7BBFCADF808000A2269461548A6
:103A3000FCF7E8FC0020607005E06078401C6070D6
:103A40006E20FDF751FB00F0A3FF10B960780A2843
:103A5000F3D360780A280BD00A210A4801F066FAED
:103A600000F0EAFB01F0DAFB0748FEF7EEFE3EBD90
:103A70000220A070F8E70000080000200000594074
:103A800058020020780000206C0200203EB5002182
:103A9000174800910191154A0291026092158260C7
:103AA00001240473017502254FF460220561C2618F
:103AB0004160FDF713F808B1FCF7C7FE0420CDE91B
:103AC00000040720029069460948FCF785FF08B109
:103AD000FCF7BBFE0520CDE9000569460448FCF76C
:103AE0007BFF002801D0FCF7B0FE3EBD0024014062
:103AF00090010020094808B5416941F00101416188
:103B00004069002200F00100009011460B20FEF7F2
:103B1000C7F8BDE808400B20FEF7B4B8001002401B
:103B20002DE9F04385B000263E48009601960296A6
:103B30000396816941F010018161816901F01001F2
:103B40000491816941F020018161816901F02001C6
:103B50000491816941F004018161816901F00401EE
:103B60000491816941F00801816180692E4F00F064
:103B700008004FF400540490002221463846FDF717
:103B80002EFDDFF8A890002245F241014846FDF7DE
:103B900026FDDFF89C8000224FF401414046FDF7EE
:103BA0001EFD01258DE87000022469463846039405
:103BB000FDF718FC45F2010003948DE861006946A9
:103BC0004846FDF70FFC1B486946CDE900404846D2
:103BD0000294FDF707FCE00103948DE8610069465B
:103BE0004046FDF7FFFBA003CDE900050320CDE92A
:103BF000025069464046FDF7F5FB40200090CDE9B4
:103C00000154694648460394FDF7ECFB0022114637
:103C10000720FEF745F80720FEF734F805B0BDE8A9
:103C2000F08300000010024000100140000C014031
:103C300000080140000011100D4810B50B4901604B
:103C40000C49416000214FF480428160C0E90312B9
:103C500041618161C1610162FDF7E6FC002803D08A
:103C6000BDE81040FCF7F1BD10BD0000005400405D
:103C700004020020A08601001CB50024174801940E
:103C8000154900940160611EC0E90114FEF724FC8F
:103C900008B1FCF7DAFD8DF804408DF805408DF889
:103CA0000640012201A90D48FEF75CFD08B1FCF7B2
:103CB000CCFD01208DF800008DF801008DF8020088
:103CC00002468DF8034069460448FEF7E9FC0028E7
:103CD00001D0FCF7BAFD1CBD0028004058020020AE
:103CE0000F4810B50D4901604FF482714160002109
:103CF0008160C1604FF400720161C0E90512C161C9
:103D00000162416281620A21C162FEF7B8FD0028AA
:103D100003D0BDE81040FCF798BD10BD0030014055
:103D20006C02002010B586B000241748009401945E
:103D30000294039404941349059401600F21C0E98F
:103D400001144FF6FF71C0E9031444618461FFF769
:103D5000E5F808B1FCF779FD4FF480500090694612
:103D60000948FFF71DF908B1FCF76FFD049404A999
:103D700005480594FFF79EF8002801D0FCF765FD83
:103D800006B010BD002C0140C40200200C4810B544
:103D90000A4901604FF496514160002181600C2274
:103DA000C160C0E904128161C161FFF7DBFA00283C
:103DB00003D0BDE81040FCF748BD10BD00380140FD
:103DC0000C0300200C4810B50A4901604FF4E131A2
:103DD0004160002181600C22C160C0E90412816150
:103DE000C161FFF7BFFA002803D0BDE81040FCF71F
:103DF0002CBD10BD00440040540300200C4810B5F9
:103E00000A4901604FF4E1314160002181600C22D8
:103E1000C160C0E904128161C161FFF7A3FA002803
:103E200003D0BDE81040FCF710BD10BD00480040B5
:103E30009C030020FEE7FEE7F0B587B000F07CFEB3
:103E40000520FDF751F900F005FF00F0E5FEFFF752
:103E500047FF6420FDF748F900F052FF44F64A207E
:103E6000ADF80000444C4CF6AC20ADF80200A07850
:103E7000ADF80400D4E90A010022404B01F0AEFC89
:103E800001F054FCADF8060003213D48FEF786FA28
:103E90003C4D3D4FADF808003946686802F010F817
:103EA00001F0DAFF04F13806ADF80A00394630684F
:103EB00002F006F801F0D0FFADF80C00394670684A
:103EC00001F0FEFF01F0C8FFADF80E003946E868CA
:103ED00001F0F6FF01F0C0FFADF81000288AADF840
:103EE0001200688AADF814006421A5F1F400FCF713
:103EF000DDFA16226946A5F1F400FCF783FA0020EA
:103F0000607005E06078401C60709620FDF7ECF86A
:103F100000F03EFD10B960780A28F3D360780A28D3
:103F20000AD018481621F43801F000F800F084F99E
:103F3000A078082803D017E00820A07016E01148E8
:103F400020219038FCF7B2FA0E48162269469038C4
:103F5000FCF758FA0B49082290390C48FCF708FD89
:103F60004FF49670FDF7C0F801F058F90848FEF7D5
:103F70006CFC07B0F0BD00000800002000005940B4
:103F8000580200206C010020000020413030010860
:103F90006C0200207047010901EB810100F00F0065
:103FA00000EB4100C0B27047002102E00A38C0B205
:103FB000491C0A28FAD2090740EA116070472DE926
:103FC000F04104460025C07B627BA37B42E0012ACE
:103FD00016D0032A14D0052A12D0072A10D0082A96
:103FE0000ED00A2A0CD00C2A0AD0042A10D0062A95
:103FF0000ED0092A0CD00B2A0AD0022A0DD028E0B4
:104000001F2B0CD30C2A05D101221346401C20E0A3
:104010001E2B04D30123521C1BE01C2B02D203F1E4
:10402000010316E011D183B29E0710D16426B3FBC1
:10403000F6F706FB173636B94FF4C876B3FBF6F73A
:1040400006FB17331BB91D2303E01D2B01D10322EF
:1040500001236D1C8D42BAD3D1B2E0736173DAB221
:10406000A27300F056F82073BDE8F08170B50446E5
:10407000FDF7BAFA05464FF47A7606E0FDF7B4FA92
:10408000401BB04201D9032070BD20684068800603
:10409000F4D52068416841F010014160002070BDF6
:1040A00070B504460068416821F010014160FDF7D9
:1040B0009BFA05464FF47A7607E000BFFDF794FAC5
:1040C000401BB04201D9032070BD206840688006C3
:1040D000F4D5002070BD00000148FEF772B9000061
:1040E000580200200168086A496A89B241EA004022
:1040F0007047006881698AB2C1698BB2816989B2EF
:104100008A4203D0C06961F31F40704743EA02400E
:104110007047F0B56424C1EBC1030927A500072649
:1041200003EB01130329B3FBF7F100F5FA60114427
:1041300001440AD2401EB0FBF4F201EB9001B0FB47
:10414000F5F0891A0844001D08E0B0FBF4F201EB19
:104150009001B0FBF5F0891A0844801CB0FBF6F121
:1041600006FB1100C0B2F0BD70B50D460646002436
:10417000FFF77CFF48B93168280C08623168A8B2A3
:1041800048623046FFF78CFF00B10124204670BD25
:1041900070B50D4606460024FFF768FF48B9316840
:1041A000280C88613168A8B2C8613046FFF778FFF3
:1041B00000B10124204670BD70B520221A491B4869
:1041C000FCF7D0FB18480825014605711622643813
:1041D000FCF718F9FFF784FD6420FCF785FF00F079
:1041E0008FFD134C0020607005E06078401C60700B
:1041F0009620FCF779FF00F0CBFB10B960780A2815
:10420000F3D360780A280DD007481621643800F0EF
:104210008DFE00F011F801F001F8BDE8704005488E
:10422000FEF713BBA570F8E7DC0000203030010872
:10423000080000206C0200202DE9F84F464C4FF09A
:10424000000984F8009000F0F1FFFDF7CDF9074672
:1042500002264FF00808414D41F2883A34E02078B8
:1042600090B33D4B3D4810331A1F111F0A30CDF853
:10427000009000F0B9FD10B9A0680A280CD084F8AD
:104280000090002000F065FF122000F079FD01464B
:10429000122000F0E1FF17E03048001FD0F80E10A8
:1042A0004160D0F812108160C18A81812888A0F510
:1042B0008841443904D16888A0F54A41AC3911D00D
:1042C00084F8009000F0B2FFFDF78EF9C11B514554
:1042D000C5D3A078022812D004282DD008282BD0CE
:1042E000BDE8F88FA0780421022804D0042813D058
:1042F00008281DD029E02889C2B2AB2A01D0A670B7
:10430000EEE7AA23B3EB102F01D1A1701DE05521D8
:10431000B1EB102F15D018E02889C1B2AB290BD111
:10432000020A0ED06FEA102010F0FF0F0CD00CE044
:104330002889C2B2AB2A02D084F80280D0E7A170EB
:10434000EEE72879A07000E0A670EA88BDE8F84F93
:1043500003210348FEF72AB808000020FC000020D3
:1043600058020020F8B5044640684FF48273984222
:1043700017D1A0684FF48065B0F5004F01D0A84276
:104380000FD12068066826F04006066060689842F3
:1043900007D1A068A84204D100920B460022012157
:1043A00003E000920B4600228021204600F018F81E
:1043B000002804D0606D40F0200060650320F8BD47
:1043C00038B50B46009204460022802100F008F820
:1043D000002804D0606D40F020006065032038BDE7
:1043E0002DE9F8431E46914688460446089DFDF790
:1043F000FBF8401B351AFDF7F7F80746254800681B
:10440000C0F3CB30684338E0701C37D0FDF7ECF8D0
:10441000C01BA84203D215B1009860B32CE02068FD
:10442000416821F0E00141606068B0F5827F0BD106
:10443000A068B0F5004F02D0B0F5806F04D12068BD
:10444000016821F040010160A06AB0F5005F09D168
:104450002068016821F4005101602068016841F47E
:1044600000510160012084F85100002084F85000C0
:104470000320BDE8F8830025401E00902068816875
:1044800038EA010004D000214945BDD10020F0E701
:104490000121F9E7640000207047FDF79BBB30B5B0
:1044A00093B028216846FCF701F814210AA8FBF70D
:1044B000FDFF00240F940920009001211094119415
:1044C00012944FF480300491CDE901040225CDE926
:1044D0000804CDE906156846FDF7D0FD08B172B6AF
:1044E000FEE70F20CDE90A0580200C90C000CDE941
:1044F0000D0400210AA8FDF7E5FC08B172B6FEE73D
:1045000003200F904FF40070CDE910040FA8FDF7C1
:1045100063FC002801D072B6FEE713B030BD7047CF
:10452000F0B50268164B174C174D4FF08047984274
:1045300005D0B84203D0A04201D0A84203D122F056
:1045400070064A683243984205D0B84203D0A04270
:1045500001D0A84203D122F44074CA6822434C69B6
:1045600022F08002224302608A68C2620A68826284
:10457000984201D10969016301214161F0BD000048
:10458000002C0140000400400008004010B5846881
:1045900042EA032224F47F440A432243826010BD8E
:1045A000826822F070020A4342F00701816070477E
:1045B00010B5036A046A24F001040462846924F0DB
:1045C000F00444EA021423F00A020A4384610262FE
:1045D00010BD10B5036A046A24F0100404628469F3
:1045E00023F0A00324F4704444EA023243EA0111A8
:1045F0008261016210BD10B5406A0021C185C1848D
:10460000FEF778FD10BD01680C3151E8002F22F44F
:10461000907241E80023002BF5D10168143151E874
:10462000002F22F0010241E80023002BF5D1016B9D
:10463000012909D101680C3151E8002F22F0100244
:1046400041E80023002BF5D1202180F84210002101
:104650000163704708B590F84210222901D002206A
:1046600008BD82684FF480539A4201D1016921B19B
:10467000816A9A421BD04AB10AE00268816A526894
:10468000C2F308020A80816A891C08E0026972B1DB
:104690000268526802F07F020A70816A491C8162D6
:1046A000C18D491E0904090CC18503D01BE00268B5
:1046B0005268F1E70168CA6822F02002CA60016806
:1046C000CA6822F48072CA6001684A6922F0010255
:1046D0004A61202180F8421000214163026B012AC7
:1046E00003D0FEF7F7FE002008BD016301680C311E
:1046F00051E8002F22F0100241E80023002BF5D1F1
:1047000001680A68D20602D50A6849680091818D5D
:10471000FEF7DCFCE7E7000070B5044600680169BD
:10472000E26821F44051114301612169A068084306
:10473000616908432168CA6841F20C639A430243E5
:10474000CA6020684169A26921F440711143416146
:104750001E492068884202D1FDF75AFC01E0FDF7AE
:1047600047FC00EBC00101EB00126068642180008F
:10477000B2FBF0F3B3FBF1F36FF018067343B2FB37
:10478000F0F5B2FBF0F605EB8305322303EB0515DC
:10479000B5FBF1F5B6FBF1F605F0F00505EB0615F6
:1047A000B2FBF0F6B2FBF0F0B0FBF1F06FF01802E4
:1047B000504306EB800003EB0010B0FBF1F02168E2
:1047C00000F00F002844886070BD000000380140F0
:1047D00081628285C28500214164222180F84210D5
:1047E000016921B10168CA6842F48072CA60016837
:1047F0004A6942F001024A610068C16841F0200143
:10480000C160002070472DE9F041984617460E46DA
:104810000446069D27E0681C25D02DB1FCF7E4FE78
:10482000A0EB0800A8421ED920680C3050E8001FF9
:1048300021F4D07140E80012002AF5D1206814302C
:1048400050E8001F21F0010140E80012002AF5D1D4
:10485000202084F8410084F84200002084F84000C1
:104860000320BDE8F0812068006836EA000004D02B
:104870000020B842CFD00020F3E70120F9E7000084
:104880000148FEF739BC00000C030020FEE70907D1
:10489000090E002804DB00F1E02080F800147047C6
:1048A00000F00F0000F1E02080F8141D70470000B8
:1048B00070B5094DFF231A4605F5807606E000BF66
:1048C00010F8014B54402A5D5A40335D491E89B2AD
:1048D000F6D242EA032070BD7E6200080EB5274C76
:1048E000606840F480706060012202A92448FDF7EE
:1048F00087FDBDF80800ADF80000224900259DF8AD
:104900000A0001958DF802008978042904D0022953
:1049100006D008290AD00CE09DF80100001D02E035
:104920009DF80100401C8DF8010002E014308DF864
:10493000020013480068416821F002014160012231
:1049400069460F48FDF736FE0F48016841F0040143
:104950000160206840F002002060206840F0040000
:104960002060206840F008002060206860680748E8
:10497000C0F80450BFF34F8F30BFFBE7007000401A
:10498000580200200800002010ED00E0002004E0A4
:1049900070B500F047FCFCF727FE0546122000F03A
:1049A000EFF90146122000F057FC114C0020207056
:1049B00000F086F9207820B9FCF716FE401B32285B
:1049C000F8D32078002810D0122000F0D9F904463E
:1049D0000146122000F040FC00F024FCE0074FEA02
:1049E000447003D1002801DA012070BD002070BDA1
:1049F00008000020FDF7F6F8FFF751FDFFF790F8EB
:104A0000FFF778F8FFF76CF9FFF7C0F9FFF73EF80A
:104A1000FFF7D8F9FFF7F2F9FFF784F9FFF72CF960
:104A200000F06EF96420FCF75FFB0F222549264851
:104A3000FEF724FB3220FCF757FB0122234E5503DF
:104A400029463046FCF7CBFD002201212048FCF727
:104A5000C6FD02211F48FDF7A1FC1F4C10F0FF000E
:104A6000A07006D1F02203211A48FDF79FFC022016
:104A7000A070C0B2810702D5FEF7AEFF0DE041077E
:104A800002D5FFF7D9F908E0000706D5FFF794FB38
:104A900003E002210F48FDF789FC02210D48FDF7D4
:104AA0007DFCA2789042F4D129463046FCF78FFD78
:104AB000C820FCF719FB29463046FCF788FDFFF7B4
:104AC0000DFF0000800100200C03002000100140B9
:104AD000000C0140580200200800002070B5134C63
:104AE00006212070032060700020A070E07020710B
:104AF000022060712046FFF7DBFEA071000AE07122
:104B000001220B4D140221462846FCF768FD4FF4A4
:104B10007A73082205490748FEF7DDFC214628463E
:104B2000BDE870400022FCF75ABD0000480000209C
:104B3000000801400C03002070B502222C492D48CA
:104B4000FCF7A2F82A4C0020143CA080E0801E2034
:104B5000FCF7CAFA264E0025A18830880844A080B8
:104B60007088E1880844E0800120FCF7BDFA6D1CE4
:104B7000EDB20F2DF0D3A0880F25B0FBF5F0A0808B
:104B800000F018FE4FF066321B4B00F027FE1B4A68
:104B90001B4B00F023FE1B4E0022334600F06EFC40
:104BA0004FF03332184B00F0B9FBC4E90A01E0883A
:104BB000B0FBF5F0154DE080288000F0FBFD0022F1
:104BC000134B00F00BFE0022124B00F007FE0022F8
:104BD000334600F053FC00F06FFB686000F0E6FF26
:104BE000C4E90C01BDE870400248FCF7D3B80000EE
:104BF0001C0000209001002066660A409A9999994D
:104C00009999134000FEAF403333E33F6C0100201D
:104C1000000026400000314010B5FFF70DF8642079
:104C2000FCF762FAFBF77CFD0849081FFBF798FDCB
:104C30000648203800F13801C2690A60006A4860FD
:104C4000BDE810400248FCF7D5BC00002800002059
:104C5000040200202DE9F0410122154F16033146D0
:104C60003846FCF7BCFC40F6AC50FCF73DFA01209E
:104C7000FFF734FF3220FCF737FA0E4D0E4C288830
:104C8000208101F009F90D4901F024F8E0606888FD
:104C900060820220FFF722FF3220FCF725FA2888E5
:104CA000208231463846BDE8F0410022FCF797BC2F
:104CB000000C0140200000206C0100200000204179
:104CC00010B5802000F045FA8721BDE81040012092
:104CD00000F0C2BA10B51A2000F052F8A43810BD86
:104CE00010B5192000F04CF840B200F04CFD6FF008
:104CF000010201F058FABDE8104000F0DDBA0000F2
:104D000010B500F0F1F8422000F03AF819490870A7
:104D100000F084FA00210F2000F09EFA00210E20FE
:104D200000F09AFA0821402000F096FA002000F0E6
:104D30002DF90D2000F058FA0F48002100F0CEF9AF
:104D40000E4800F04BF90B2000F014FA052000F09B
:104D50008BF90C2000F001FA0021012000F0E0F9AD
:104D6000012000F0A7F9002000F0F3F9BDE81040A1
:104D700000F058BA00000020400ECF1990D0030078
:104D80007CB500F07F008DF804000020144D8DF8F4
:104D9000000002464FF4004421462846FCF71FFC61
:104DA0004FF47A763346012201A90E48FDF7BFFE83
:104DB0000C48FDF761FD0128FAD13346012269460E
:104DC0000848FDF709FE0748FDF756FD0128FAD10E
:104DD000012221462846FCF702FC9DF800007CBD1C
:104DE000000801406C0200202DE9F0471E461746DE
:104DF0000D468046DDF82090FBF7E5FA0146404677
:104E0000FBF732FB1220FFF7BBFF044601461220DE
:104E100000F022FA1E48610606D41EA14068FEF783
:104E2000BBFD0220BDE8F087E10605D420A1406863
:104E3000FEF7B2FD0420F5E7A10605D523A14068E1
:104E4000FEF7AAFD0320EDE71320FFF799FF286086
:104E5000FFF740FF3860FFF743FF30601020FFF797
:104E60008FFF01460D2000F0F7F9002405E0002037
:104E7000FFF786FF08F80400641C2868A042F6D8F3
:104E8000B9F1000F01D100F0CDF90020CAE7000010
:104E900000000020496E76616C6964205278446F8E
:104EA0006E6520496E746572727570740000000042
:104EB000496E76616C696420486561646572204959
:104EC0006E74657272757074000000005061796CC8
:104ED0006F616420437263204572726F7220496E65
:104EE000746572727570740010B50C4C002240210C
:104EF0002046FCF774FB3220FCF7F6F80122402133
:104F00002046FCF76CFB3220FCF7EEF80122BDE8EE
:104F10001040D1030248FCF762BB0000000C0140C6
:104F2000000801408521012000F096B970B50D46BA
:104F3000064600F077F900210D2000F08DF90021E0
:104F4000222000F089F9002404E0315D002000F007
:104F500083F9641CAC42F8DBE9B2222000F07CF952
:104F600000F075F902E00A20FCF7BEF81220FFF706
:104F700007FF0007F7D51220FFF702FF01461220B6
:104F800000F06AF9BDE8704000F048B910B5044679
:104F9000062806D910480CA14068BDE81040FEF76D
:104FA000FBBC74B10021262000F056F90C20FFF75D
:104FB000E7FE40EA4410C1B20C20BDE8104000F00A
:104FC0004BB904212620F8E7496E76616C696420AC
:104FD0006761696E000000000000002010B541F616
:104FE0007861884201DC00242EE042F6A00188426C
:104FF00001DC012428E043F6F041884201DC022470
:1050000022E045F24011884201DC03241CE047F60F
:105010001221884201DC042416E04AF2E42188428D
:1050200001DC052410E04FF22441884201DC062413
:105030000AE00B49884201DC072405E0094988425F
:1050400001DC082400E009241D20FFF799FE64F329
:105050001F100146BDE810401D2000F0FDB8000003
:1050600048E8010090D0030010B5411F042906D381
:105070000F480AA14068BDE81040FEF78DBC041F30
:105080001D20FFF77DFE00F0F10040EA4400C1B2B0
:10509000BDE810401D2000F0DFB80000496E7661C9
:1050A0006C696420636F64696E6720726174650067
:1050B0000000002010B500284FF01E0004D0FFF7BC
:1050C0005FFE40F0040103E0FFF75AFE00F0FB0131
:1050D000BDE810401E2000F0BFB8000070B5C90444
:1050E00041EA5031C0040D4A0023FBF771F8044631
:1050F000000C0D4640EA0140C1B2062000F0ACF8B9
:10510000200A40EA0560C1B2072000F0A5F8E1B22C
:10511000BDE87040082000F09FB800000048E8019A
:1051200010B500280C464FF01D0005D0FFF728FEF3
:1051300000F0FE011D2008E0FFF722FE40F0010113
:105140001D2000F089F8E1B22220BDE8104000F0F7
:1051500083B80146402000F07FB810B50446C0F384
:105160000721202000F078F8E1B2BDE810402120AE
:1051700000F072B810B50446801F072806D31948FE
:1051800011A14068BDE81040FEF706BC062C14D003
:10519000C321312000F060F80A21372000F05CF8CC
:1051A0001E20FFF7EDFD00F00F01200741EA10611E
:1051B000BDE810401E2000F04FB8C521312000F09E
:1051C0004BF80C21E9E70000496E76616C696420B8
:1051D000737072656164696E6720666163746F7273
:1051E00000000000000000200F2804D90A4804A194
:1051F0004068FEF7D1BB40F08001092000F02CB8D8
:10520000496E76616C6964206F7574707574207076
:105210006F776572000000000000002080210120EF
:1052200000F01AB88121012000F016B810B5FFF780
:10523000F9FF0020FFF78DFF1220FFF7A1FD0146C7
:10524000122000F009F8BDE81040FFF76BBE832183
:10525000012000F001B8000073B582B040F080007A
:10526000134D8DF800004FF40044002221462846DB
:10527000FCF7B5F94FF47A763346012269460D48BA
:10528000FDF755FC0B48FDF7F7FA0128FAD1334634
:10529000012203A90748FDF74AFC0648FDF7ECFA8E
:1052A0000128FAD1012221462846FCF798F97FBD52
:1052B000000801406C02002021F00042A2F160527F
:1052C000B2F5801F01F0004328BFD2F17F6C0BD9EB
:1052D0005FEA001C43EAC20242EB507018BF7047FD
:1052E00028BF20F001007047B2F5801FBCBF1846F0
:1052F00070474FEA410C1CF5001F02D2084600F02F
:10530000A6BE70B500F014FB00000089FFF7F6BFE1
:105310004FF00040A0F580007047000010B591EA02
:10532000030F48BF83F0004300F15E83841A71EBE2
:10533000030C05D2121943EB0C03001B61EB0C01AB
:10534000DFF824E14FEA1154A4EB135C1EEA430F8B
:1053500018BF9EEA445F73D023EA0E03DCF1200EEF
:1053600021EA045143F4801332D322FA0CFE10EBED
:105370000E0023FA0CFE41EB0E01CCF1200E03FAD5
:105380000EFE10EB0E0051F10001B1F5801FCCF1C3
:10539000200E32D201EB045112FA0EF2BDE8104099
:1053A00058BF7047401C38BF5FEA420218BF7047C1
:1053B000002814BF20F0010041F100014FEA410331
:1053C00013F5001F38BF7047A1F1C04100F0FEBACD
:1053D000012A43EB0302ACF1200CDCF11F0E32BFBB
:1053E0004FF0000E23FA0CF310EB030041EB0451D5
:1053F000B4EB115FD0D0A1EB045101F58011490845
:105400005FEA300001EB04510ED350F1000038BFC9
:1054100012FA0EFE08D1BDE81040C9E7401C38BFA3
:105420005FEA4202CAD1C3E7BDE810404FEA410338
:1054300013F5001F38BF7047A1F1C04100F0C6BA94
:105440009EEA445F08D011EA5E0FBDE8104004BF39
:1054500001F0004100207047BDE8104070B500F039
:1054600067FA00BF64FBBE3E0000E0FF02494FF058
:10547000000000F066BE00BF0000F87F2DE9C041CB
:1054800030B4DFF8A0C23CEA111418BF3CEA131490
:1054900000F0EC8081EA03051CEA111444EAD5749B
:1054A00018BF1CEA131500F0C780A4EB05044FF0E9
:1054B000004545EAC12145EAC32341EA505143EA88
:1054C000525304F17F74994204F500344FEAC0202E
:1054D0004FEAC22208BF904200F09C804FEA136559
:1054E0000FF24016765D4FEA134506FB05F7C7F14C
:1054F000807706FB07F74FEAD737A7FB03687642AA
:10550000C8F58038A7FB06CE38BFA8F1010807FB15
:1055100008E64FF0000EA6FB028CE6FB03CEDCF1A2
:10552000000CCEF1004E38BFAEF1010EA6FB0C58B8
:105530004FF000074FF00005E6FB0E87A1FB08C601
:10554000A0FB07CE16EB0E0645F10005E1FB076553
:1055500015F1E04E7EBFA4F580345FEA46066D414A
:1055600016F1800745F100054FEA17274FEA066656
:1055700047EA0567A6F1DE46B6F1805F4FEA1525DA
:105580001FD9384624F0010C05EBC471BCF1FE6F45
:1055900001EB0C1102D8F0BCBDE8008124425CBFD5
:1055A00001F5801E9EEAC47F02D4F0BCBDE80081F4
:1055B000244238D4F0BCA1F1C041BDE8004100F064
:1055C00005BA4FEAD22242EA43524FEAD323A7FB5D
:1055D00002864FEAD02040EA415007FB03661EEAEC
:1055E0000E0F4FEAD12105FB026658BFA6EB00560D
:1055F000B6EB00564FEA520E4EEAC37E18EB0E0E83
:1056000056EB530EBDD518EB02085E417F1C55F1D9
:105610000005B6E74FF480154FF000074FF0000685
:105620004FF00008ADE7F0BC4FF0000001F1C041C1
:1056300001F00041BDE8008111EA0C1F0CEA1315CE
:1056400000D00CE013EA0C1F00F025804FF00000A2
:10565000F0BC81EA030101F00041BDE80081F0BC2B
:10566000BDE8004181EA030100F0B0B9F0BCBDE83B
:10567000004170B500F05CF9097EFC3E00F007B80F
:1056800081EA03014FF0000001F00041704781EA18
:10569000030100F09BB9F0BCBDE800414FF00000F1
:1056A00021497047FFFDFBF9F7F5F4F2F0EEEDEB61
:1056B000E9E8E6E4E3E1E0DEDDDBDAD8D7D5D4D310
:1056C000D1D0CFCDCCCBCAC8C7C6C5C4C2C1C0BF5C
:1056D000BEBDBCBBBAB9B8B7B6B5B4B3B2B1B0AF62
:1056E000AEADACABAAA9A8A8A7A6A5A4A3A3A2A146
:1056F000A09F9F9E9D9C9C9B9A9999989797969501
:1057000095949393929191908F8F8E8E8D8C8C8B9C
:105710008B8A898988888787868585848483838224
:10572000828181800000FF070000F87F4FEA11535B
:10573000A3F58063D3F11E03A8BFD3F1200C08DBCF
:105740004FF0004242EAC12252EA505232FA03F0CC
:10575000704709420BD4102BC4BF0020704703F5DB
:10576000787CBCF1FF3F05D04FF0FF3070474FF021
:105770000000704770B500F0DBF800BF499224804C
:1057800000207047F0E710F0004248BF4042B0FAF6
:1057900080F310FA03F10AD0C3F11D0303F580630F
:1057A0004FEA415002EB035202EBD12170474FF018
:1057B00000007047B0FA80F310FA03F10AD0C3F189
:1057C0001D0303F580634FEA41504FEA035202EB99
:1057D000D12170474FF0000070470000DFF848C14A
:1057E00070B51CEA111E1EBF1CEA13159EEA0C0FB1
:1057F00095EA0C0F00F06F8081EA030423EA4C1352
:105800004EEAD47E21EA4C1141F4801143F4801316
:10581000AE44A1FB024CA0FB0365AEF17F7E3619BE
:1058200055EB0C05A1FB034C4CF10003A0FB021C43
:1058300016EB0C06654153F10003094218BF46F010
:10584000010613F4007F0BD14FEA03314FEA053014
:10585000340341EA155140EA16506FF003020AE0A2
:105860004FEAC3214FEAC520F40241EA555140EA0C
:1058700056506FF0020202EB2E4201EB025585EA10
:10588000CE710AD05FEA440C18BF24F0004450F1F6
:10589000000041F1000120EAD47040F2FE7C624534
:1058A00000D270BDA84214BF4FF080444FF0404476
:1058B000002E08BF0024BEF1806FA8BFA1F1C04137
:1058C000BDE8704080F282804FF0000001F1C041DD
:1058D00001F0004170479EEA0C0F0CEA131518BF47
:1058E00095EA0C0F06D04FF0000081EA030E0EF08F
:1058F000004170BD00F01CF88900013E00F007B8BF
:1059000000F009B84FEA430C5FEA5C5C08D081EA1A
:10591000030100F05BB84FEA410C5FEA5C5CF6D132
:105920004FF00000014970470000FF070000F87FBA
:105930000EF1020E2EF0030E5EF8046B364205D413
:10594000012A43EB030515F5001F12D8012841EB8E
:10595000010C1CF5001F0CD80ED14FEAD17C15F5B7
:10596000001F0CEB4C0C0CF1020C08BF4CEBD37C71
:1059700004E04FF0080C01E04FEAD37C0CEB4C053F
:1059800026FA05F606F00706B6F1040C06D20EEB71
:10599000860CBDE870404CF0010C6047DFE80CF06D
:1059A000090B02024FF000414FF00000A1F5002169
:1059B00070BD19461046012851EB010418BFD4F5FB
:1059C000001484BF002001F0004170BD0808A0F55C
:1059D00000114FEA3101704710B591EA030F48BF3B
:1059E00083F000433FF5A2AC841A71EB030C07D29D
:1059F00012198CF0004C43EB0C03001B61EB0C0103
:105A0000DFF8A4E14FEA1154A4EB135C1EEA430F44
:105A100018BF9EEA445F00F0B08023EA6E03524252
:105A200021EA0451C3EB6E0338BF5B1EDCF1200E8C
:105A300025D322FA0CFE10EB0E0043FA0CFE41EBCC
:105A40000E01CCF1200E03FA0EFE10EB0E0051F108
:105A50000001CCF1200E29D412FA0EF201EB045110
:105A6000BDE8104058BF7047401C1CBFB2F1004F4A
:105A7000704700280CBF491C20F00100704712EB52
:105A8000020E43EB030218BF4FF0010E4EEA420232
:105A9000ACF1200CDCF11E0E54D943FA0CFE10EBD5
:105AA0000E0051F1FF31CCF11E0ED5D50EF1010ED5
:105AB00012FA0EFE404141EB010101EB445C5FEA4A
:105AC0005C5C10D910EBDE7001EB045138BFBEF105
:105AD000004FBDE8104018BF704700280CBF491C9C
